{
  "_format": "hh-sol-artifact-1",
  "contractName": "TinyBank",
  "sourceName": "contracts/TinyBank.sol",
  "abi": [
    {
      "inputs": [
        {
          "internalType": "contract IMyToken",
          "name": "_stakingToken",
          "type": "address"
        }
      ],
      "stateMutability": "nonpayable",
      "type": "constructor"
    },
    {
      "anonymous": false,
      "inputs": [
        {
          "indexed": false,
          "internalType": "address",
          "name": "from",
          "type": "address"
        },
        {
          "indexed": false,
          "internalType": "uint256",
          "name": "amount",
          "type": "uint256"
        }
      ],
      "name": "Staked",
      "type": "event"
    },
    {
      "anonymous": false,
      "inputs": [
        {
          "indexed": false,
          "internalType": "address",
          "name": "to",
          "type": "address"
        },
        {
          "indexed": false,
          "internalType": "uint256",
          "name": "amount",
          "type": "uint256"
        }
      ],
      "name": "Withdrawn",
      "type": "event"
    },
    {
      "inputs": [
        {
          "internalType": "address",
          "name": "to",
          "type": "address"
        }
      ],
      "name": "currentReward",
      "outputs": [
        {
          "internalType": "uint256",
          "name": "",
          "type": "uint256"
        }
      ],
      "stateMutability": "view",
      "type": "function"
    },
    {
      "inputs": [],
      "name": "getRewardPerBlock",
      "outputs": [
        {
          "internalType": "uint256",
          "name": "",
          "type": "uint256"
        }
      ],
      "stateMutability": "view",
      "type": "function"
    },
    {
      "inputs": [
        {
          "internalType": "address",
          "name": "",
          "type": "address"
        }
      ],
      "name": "lastClaimedBlock",
      "outputs": [
        {
          "internalType": "uint256",
          "name": "",
          "type": "uint256"
        }
      ],
      "stateMutability": "view",
      "type": "function"
    },
    {
      "inputs": [],
      "name": "manager",
      "outputs": [
        {
          "internalType": "address",
          "name": "",
          "type": "address"
        }
      ],
      "stateMutability": "view",
      "type": "function"
    },
    {
      "inputs": [],
      "name": "owner",
      "outputs": [
        {
          "internalType": "address",
          "name": "",
          "type": "address"
        }
      ],
      "stateMutability": "view",
      "type": "function"
    },
    {
      "inputs": [
        {
          "internalType": "address",
          "name": "_manager",
          "type": "address"
        }
      ],
      "name": "setManager",
      "outputs": [],
      "stateMutability": "nonpayable",
      "type": "function"
    },
    {
      "inputs": [
        {
          "internalType": "uint256",
          "name": "_amount",
          "type": "uint256"
        }
      ],
      "name": "stake",
      "outputs": [],
      "stateMutability": "nonpayable",
      "type": "function"
    },
    {
      "inputs": [
        {
          "internalType": "address",
          "name": "",
          "type": "address"
        }
      ],
      "name": "staked",
      "outputs": [
        {
          "internalType": "uint256",
          "name": "",
          "type": "uint256"
        }
      ],
      "stateMutability": "view",
      "type": "function"
    },
    {
      "inputs": [],
      "name": "stakingToken",
      "outputs": [
        {
          "internalType": "contract IMyToken",
          "name": "",
          "type": "address"
        }
      ],
      "stateMutability": "view",
      "type": "function"
    },
    {
      "inputs": [],
      "name": "totalStaked",
      "outputs": [
        {
          "internalType": "uint256",
          "name": "",
          "type": "uint256"
        }
      ],
      "stateMutability": "view",
      "type": "function"
    },
    {
      "inputs": [
        {
          "internalType": "uint256",
          "name": "_amount",
          "type": "uint256"
        }
      ],
      "name": "withdraw",
      "outputs": [],
      "stateMutability": "nonpayable",
      "type": "function"
    }
  ],
  "bytecode": "0x6080604052670de0b6b3a764000060045534801561001c57600080fd5b5060405161113a38038061113a833981810160405281019061003e9190610145565b33806000806101000a81548173ffffffffffffffffffffffffffffffffffffffff021916908373ffffffffffffffffffffffffffffffffffffffff1602179055505080600260006101000a81548173ffffffffffffffffffffffffffffffffffffffff021916908373ffffffffffffffffffffffffffffffffffffffff16021790555060045460058190555050610172565b600080fd5b600073ffffffffffffffffffffffffffffffffffffffff82169050919050565b6000610100826100d5565b9050919050565b6000610112826100f5565b9050919050565b61012281610107565b811461012d57600080fd5b50565b60008151905061013f81610119565b92915050565b60006020828403121561015b5761015a6100d0565b5b600061016984828501610130565b91505092915050565b610fb9806101816000396000f3fe608060405234801561001057600080fd5b50600436106100a95760003560e01c80638da5cb5b116100715780638da5cb5b1461014257806398807d84146101605780639d18e4b014610190578063a694fc3a146101c0578063c19e82d5146101dc578063d0ebdbe71461020c576100a9565b80632e1a7d4d146100ae578063481c6a75146100ca57806349df8d33146100e857806372f702f314610106578063817b1cd214610124575b600080fd5b6100c860048036038101906100c39190610b52565b610228565b005b6100d26105bc565b6040516100df9190610bc0565b60405180910390f35b6100f06105e2565b6040516100fd9190610bea565b60405180910390f35b61010e6105ec565b60405161011b9190610c64565b60405180910390f35b61012c610612565b6040516101399190610bea565b60405180910390f35b61014a610618565b6040516101579190610bc0565b60405180910390f35b61017a60048036038101906101759190610cab565b61063c565b6040516101879190610bea565b60405180910390f35b6101aa60048036038101906101a59190610cab565b610654565b6040516101b79190610bea565b60405180910390f35b6101da60048036038101906101d59190610b52565b610763565b005b6101f660048036038101906101f19190610cab565b610abb565b6040516102039190610bea565b60405180910390f35b61022660048036038101906102219190610cab565b610ad3565b005b336000600660008373ffffffffffffffffffffffffffffffffffffffff1673ffffffffffffffffffffffffffffffffffffffff1681526020019081526020016000205411156103bb576000600360008373ffffffffffffffffffffffffffffffffffffffff1673ffffffffffffffffffffffffffffffffffffffff16815260200190815260200160002054436102be9190610d07565b90506000600754600660008573ffffffffffffffffffffffffffffffffffffffff1673ffffffffffffffffffffffffffffffffffffffff16815260200190815260200160002054600554846103139190610d3b565b61031d9190610d3b565b6103279190610dac565b9050600260009054906101000a900473ffffffffffffffffffffffffffffffffffffffff1673ffffffffffffffffffffffffffffffffffffffff166394bf804d82856040518363ffffffff1660e01b8152600401610386929190610ddd565b600060405180830381600087803b1580156103a057600080fd5b505af11580156103b4573d6000803e3d6000fd5b5050505050505b43600360008373ffffffffffffffffffffffffffffffffffffffff1673ffffffffffffffffffffffffffffffffffffffff1681526020019081526020016000208190555081600660003373ffffffffffffffffffffffffffffffffffffffff1673ffffffffffffffffffffffffffffffffffffffff168152602001908152602001600020541015610481576040517f08c379a000000000000000000000000000000000000000000000000000000000815260040161047890610e63565b60405180910390fd5b600260009054906101000a900473ffffffffffffffffffffffffffffffffffffffff1673ffffffffffffffffffffffffffffffffffffffff1663a9059cbb33846040518363ffffffff1660e01b81526004016104de929190610e83565b600060405180830381600087803b1580156104f857600080fd5b505af115801561050c573d6000803e3d6000fd5b5050505081600660003373ffffffffffffffffffffffffffffffffffffffff1673ffffffffffffffffffffffffffffffffffffffff168152602001908152602001600020600082825461055f9190610d07565b9250508190555081600760008282546105789190610d07565b925050819055507f7084f5476618d8e60b11ef0d7d3f06914655adb8793e28ff7f018d4c76d505d533836040516105b0929190610e83565b60405180910390a15050565b600160009054906101000a900473ffffffffffffffffffffffffffffffffffffffff1681565b6000600554905090565b600260009054906101000a900473ffffffffffffffffffffffffffffffffffffffff1681565b60075481565b60008054906101000a900473ffffffffffffffffffffffffffffffffffffffff1681565b60066020528060005260406000206000915090505481565b600080600660008473ffffffffffffffffffffffffffffffffffffffff1673ffffffffffffffffffffffffffffffffffffffff168152602001908152602001600020541115610759576000600360008473ffffffffffffffffffffffffffffffffffffffff1673ffffffffffffffffffffffffffffffffffffffff16815260200190815260200160002054436106ea9190610d07565b9050600754600660008573ffffffffffffffffffffffffffffffffffffffff1673ffffffffffffffffffffffffffffffffffffffff168152602001908152602001600020546005548361073d9190610d3b565b6107479190610d3b565b6107519190610dac565b91505061075e565b600090505b919050565b336000600660008373ffffffffffffffffffffffffffffffffffffffff1673ffffffffffffffffffffffffffffffffffffffff1681526020019081526020016000205411156108f6576000600360008373ffffffffffffffffffffffffffffffffffffffff1673ffffffffffffffffffffffffffffffffffffffff16815260200190815260200160002054436107f99190610d07565b90506000600754600660008573ffffffffffffffffffffffffffffffffffffffff1673ffffffffffffffffffffffffffffffffffffffff168152602001908152602001600020546005548461084e9190610d3b565b6108589190610d3b565b6108629190610dac565b9050600260009054906101000a900473ffffffffffffffffffffffffffffffffffffffff1673ffffffffffffffffffffffffffffffffffffffff166394bf804d82856040518363ffffffff1660e01b81526004016108c1929190610ddd565b600060405180830381600087803b1580156108db57600080fd5b505af11580156108ef573d6000803e3d6000fd5b5050505050505b43600360008373ffffffffffffffffffffffffffffffffffffffff1673ffffffffffffffffffffffffffffffffffffffff16815260200190815260200160002081905550600082101561097e576040517f08c379a000000000000000000000000000000000000000000000000000000000815260040161097590610ef8565b60405180910390fd5b600260009054906101000a900473ffffffffffffffffffffffffffffffffffffffff1673ffffffffffffffffffffffffffffffffffffffff166323b872dd3330856040518463ffffffff1660e01b81526004016109dd93929190610f18565b600060405180830381600087803b1580156109f757600080fd5b505af1158015610a0b573d6000803e3d6000fd5b5050505081600660003373ffffffffffffffffffffffffffffffffffffffff1673ffffffffffffffffffffffffffffffffffffffff1681526020019081526020016000206000828254610a5e9190610f4f565b925050819055508160076000828254610a779190610f4f565b925050819055507f9e71bc8eea02a63969f509818f2dafb9254532904319f9dbda79b67bd34a5f3d3383604051610aaf929190610e83565b60405180910390a15050565b60036020528060005260406000206000915090505481565b80600160006101000a81548173ffffffffffffffffffffffffffffffffffffffff021916908373ffffffffffffffffffffffffffffffffffffffff16021790555050565b600080fd5b6000819050919050565b610b2f81610b1c565b8114610b3a57600080fd5b50565b600081359050610b4c81610b26565b92915050565b600060208284031215610b6857610b67610b17565b5b6000610b7684828501610b3d565b91505092915050565b600073ffffffffffffffffffffffffffffffffffffffff82169050919050565b6000610baa82610b7f565b9050919050565b610bba81610b9f565b82525050565b6000602082019050610bd56000830184610bb1565b92915050565b610be481610b1c565b82525050565b6000602082019050610bff6000830184610bdb565b92915050565b6000819050919050565b6000610c2a610c25610c2084610b7f565b610c05565b610b7f565b9050919050565b6000610c3c82610c0f565b9050919050565b6000610c4e82610c31565b9050919050565b610c5e81610c43565b82525050565b6000602082019050610c796000830184610c55565b92915050565b610c8881610b9f565b8114610c9357600080fd5b50565b600081359050610ca581610c7f565b92915050565b600060208284031215610cc157610cc0610b17565b5b6000610ccf84828501610c96565b91505092915050565b7f4e487b7100000000000000000000000000000000000000000000000000000000600052601160045260246000fd5b6000610d1282610b1c565b9150610d1d83610b1c565b9250828203905081811115610d3557610d34610cd8565b5b92915050565b6000610d4682610b1c565b9150610d5183610b1c565b9250828202610d5f81610b1c565b91508282048414831517610d7657610d75610cd8565b5b5092915050565b7f4e487b7100000000000000000000000000000000000000000000000000000000600052601260045260246000fd5b6000610db782610b1c565b9150610dc283610b1c565b925082610dd257610dd1610d7d565b5b828204905092915050565b6000604082019050610df26000830185610bdb565b610dff6020830184610bb1565b9392505050565b600082825260208201905092915050565b7f696e73756666696369656e74207374616b656420746f6b656e00000000000000600082015250565b6000610e4d601983610e06565b9150610e5882610e17565b602082019050919050565b60006020820190508181036000830152610e7c81610e40565b9050919050565b6000604082019050610e986000830185610bb1565b610ea56020830184610bdb565b9392505050565b7f63616e6e6f74207374616b65203020616d6f756e740000000000000000000000600082015250565b6000610ee2601583610e06565b9150610eed82610eac565b602082019050919050565b60006020820190508181036000830152610f1181610ed5565b9050919050565b6000606082019050610f2d6000830186610bb1565b610f3a6020830185610bb1565b610f476040830184610bdb565b949350505050565b6000610f5a82610b1c565b9150610f6583610b1c565b9250828201905080821115610f7d57610f7c610cd8565b5b9291505056fea2646970667358221220fe623fdccafe4d5d4a2173f7a168da100df659f90febf85ecfdd90c118f02f1064736f6c634300081c0033",
  "linkReferences": {},
  "deployedLinkReferences": {}
}