{
  "_format": "hh-sol-artifact-1",
  "contractName": "MyToken",
  "sourceName": "contracts/MyToken.sol",
  "abi": [
    {
      "inputs": [
        {
          "internalType": "string",
          "name": "_name",
          "type": "string"
        },
        {
          "internalType": "string",
          "name": "_symbol",
          "type": "string"
        },
        {
          "internalType": "uint8",
          "name": "_decimals",
          "type": "uint8"
        },
        {
          "internalType": "uint256",
          "name": "_amount",
          "type": "uint256"
        }
      ],
      "stateMutability": "nonpayable",
      "type": "constructor"
    },
    {
      "anonymous": false,
      "inputs": [
        {
          "indexed": true,
          "internalType": "address",
          "name": "spender",
          "type": "address"
        },
        {
          "indexed": false,
          "internalType": "uint256",
          "name": "amount",
          "type": "uint256"
        }
      ],
      "name": "Approval",
      "type": "event"
    },
    {
      "anonymous": false,
      "inputs": [
        {
          "indexed": true,
          "internalType": "address",
          "name": "from",
          "type": "address"
        },
        {
          "indexed": true,
          "internalType": "address",
          "name": "to",
          "type": "address"
        },
        {
          "indexed": false,
          "internalType": "uint256",
          "name": "value",
          "type": "uint256"
        }
      ],
      "name": "Transfer",
      "type": "event"
    },
    {
      "inputs": [
        {
          "internalType": "address",
          "name": "spender",
          "type": "address"
        },
        {
          "internalType": "uint256",
          "name": "amount",
          "type": "uint256"
        }
      ],
      "name": "approve",
      "outputs": [],
      "stateMutability": "nonpayable",
      "type": "function"
    },
    {
      "inputs": [
        {
          "internalType": "address",
          "name": "",
          "type": "address"
        }
      ],
      "name": "balanceOf",
      "outputs": [
        {
          "internalType": "uint256",
          "name": "",
          "type": "uint256"
        }
      ],
      "stateMutability": "view",
      "type": "function"
    },
    {
      "inputs": [],
      "name": "decimals",
      "outputs": [
        {
          "internalType": "uint8",
          "name": "",
          "type": "uint8"
        }
      ],
      "stateMutability": "view",
      "type": "function"
    },
    {
      "inputs": [
        {
          "internalType": "uint256",
          "name": "amount",
          "type": "uint256"
        }
      ],
      "name": "faucet",
      "outputs": [],
      "stateMutability": "nonpayable",
      "type": "function"
    },
    {
      "inputs": [],
      "name": "manager",
      "outputs": [
        {
          "internalType": "address",
          "name": "",
          "type": "address"
        }
      ],
      "stateMutability": "view",
      "type": "function"
    },
    {
      "inputs": [],
      "name": "name",
      "outputs": [
        {
          "internalType": "string",
          "name": "",
          "type": "string"
        }
      ],
      "stateMutability": "view",
      "type": "function"
    },
    {
      "inputs": [],
      "name": "owner",
      "outputs": [
        {
          "internalType": "address",
          "name": "",
          "type": "address"
        }
      ],
      "stateMutability": "view",
      "type": "function"
    },
    {
      "inputs": [
        {
          "internalType": "address",
          "name": "_manager",
          "type": "address"
        }
      ],
      "name": "setManager",
      "outputs": [],
      "stateMutability": "nonpayable",
      "type": "function"
    },
    {
      "inputs": [],
      "name": "symbol",
      "outputs": [
        {
          "internalType": "string",
          "name": "",
          "type": "string"
        }
      ],
      "stateMutability": "view",
      "type": "function"
    },
    {
      "inputs": [],
      "name": "totalSupply",
      "outputs": [
        {
          "internalType": "uint256",
          "name": "",
          "type": "uint256"
        }
      ],
      "stateMutability": "view",
      "type": "function"
    },
    {
      "inputs": [
        {
          "internalType": "address",
          "name": "to",
          "type": "address"
        },
        {
          "internalType": "uint256",
          "name": "amount",
          "type": "uint256"
        }
      ],
      "name": "transfer",
      "outputs": [],
      "stateMutability": "nonpayable",
      "type": "function"
    },
    {
      "inputs": [
        {
          "internalType": "address",
          "name": "from",
          "type": "address"
        },
        {
          "internalType": "address",
          "name": "to",
          "type": "address"
        },
        {
          "internalType": "uint256",
          "name": "amount",
          "type": "uint256"
        }
      ],
      "name": "transferFrom",
      "outputs": [],
      "stateMutability": "nonpayable",
      "type": "function"
    }
  ],
  "bytecode": "0x608060405234801561001057600080fd5b5060405161181c38038061181c833981810160405281019061003291906103ae565b33806000806101000a81548173ffffffffffffffffffffffffffffffffffffffff021916908373ffffffffffffffffffffffffffffffffffffffff1602179055505083600290816100839190610664565b5082600390816100939190610664565b5081600460006101000a81548160ff021916908360ff1602179055506100e8600460009054906101000a900460ff1660ff16600a6100d19190610898565b826100dc91906108e3565b336100f160201b60201c565b50505050610983565b81600560008282546101039190610925565b9250508190555081600660008373ffffffffffffffffffffffffffffffffffffffff1673ffffffffffffffffffffffffffffffffffffffff16815260200190815260200160002060008282546101599190610925565b925050819055508073ffffffffffffffffffffffffffffffffffffffff16600073ffffffffffffffffffffffffffffffffffffffff167fddf252ad1be2c89b69c2b068fc378daa952ba7f163c4a11628f55a4df523b3ef846040516101be9190610968565b60405180910390a35050565b6000604051905090565b600080fd5b600080fd5b600080fd5b600080fd5b6000601f19601f8301169050919050565b7f4e487b7100000000000000000000000000000000000000000000000000000000600052604160045260246000fd5b610231826101e8565b810181811067ffffffffffffffff821117156102505761024f6101f9565b5b80604052505050565b60006102636101ca565b905061026f8282610228565b919050565b600067ffffffffffffffff82111561028f5761028e6101f9565b5b610298826101e8565b9050602081019050919050565b60005b838110156102c35780820151818401526020810190506102a8565b60008484015250505050565b60006102e26102dd84610274565b610259565b9050828152602081018484840111156102fe576102fd6101e3565b5b6103098482856102a5565b509392505050565b600082601f830112610326576103256101de565b5b81516103368482602086016102cf565b91505092915050565b600060ff82169050919050565b6103558161033f565b811461036057600080fd5b50565b6000815190506103728161034c565b92915050565b6000819050919050565b61038b81610378565b811461039657600080fd5b50565b6000815190506103a881610382565b92915050565b600080600080608085870312156103c8576103c76101d4565b5b600085015167ffffffffffffffff8111156103e6576103e56101d9565b5b6103f287828801610311565b945050602085015167ffffffffffffffff811115610413576104126101d9565b5b61041f87828801610311565b935050604061043087828801610363565b925050606061044187828801610399565b91505092959194509250565b600081519050919050565b7f4e487b7100000000000000000000000000000000000000000000000000000000600052602260045260246000fd5b6000600282049050600182168061049f57607f821691505b6020821081036104b2576104b1610458565b5b50919050565b60008190508160005260206000209050919050565b60006020601f8301049050919050565b600082821b905092915050565b60006008830261051a7fffffffffffffffffffffffffffffffffffffffffffffffffffffffffffffffff826104dd565b61052486836104dd565b95508019841693508086168417925050509392505050565b6000819050919050565b600061056161055c61055784610378565b61053c565b610378565b9050919050565b6000819050919050565b61057b83610546565b61058f61058782610568565b8484546104ea565b825550505050565b600090565b6105a4610597565b6105af818484610572565b505050565b5b818110156105d3576105c860008261059c565b6001810190506105b5565b5050565b601f821115610618576105e9816104b8565b6105f2846104cd565b81016020851015610601578190505b61061561060d856104cd565b8301826105b4565b50505b505050565b600082821c905092915050565b600061063b6000198460080261061d565b1980831691505092915050565b6000610654838361062a565b9150826002028217905092915050565b61066d8261044d565b67ffffffffffffffff811115610686576106856101f9565b5b6106908254610487565b61069b8282856105d7565b600060209050601f8311600181146106ce57600084156106bc578287015190505b6106c68582610648565b86555061072e565b601f1984166106dc866104b8565b60005b82811015610704578489015182556001820191506020850194506020810190506106df565b86831015610721578489015161071d601f89168261062a565b8355505b6001600288020188555050505b505050505050565b7f4e487b7100000000000000000000000000000000000000000000000000000000600052601160045260246000fd5b60008160011c9050919050565b6000808291508390505b60018511156107bc5780860481111561079857610797610736565b5b60018516156107a75780820291505b80810290506107b585610765565b945061077c565b94509492505050565b6000826107d55760019050610891565b816107e35760009050610891565b81600181146107f9576002811461080357610832565b6001915050610891565b60ff84111561081557610814610736565b5b8360020a91508482111561082c5761082b610736565b5b50610891565b5060208310610133831016604e8410600b84101617156108675782820a90508381111561086257610861610736565b5b610891565b6108748484846001610772565b9250905081840481111561088b5761088a610736565b5b81810290505b9392505050565b60006108a382610378565b91506108ae83610378565b92506108db7fffffffffffffffffffffffffffffffffffffffffffffffffffffffffffffffff84846107c5565b905092915050565b60006108ee82610378565b91506108f983610378565b925082820261090781610378565b9150828204841483151761091e5761091d610736565b5b5092915050565b600061093082610378565b915061093b83610378565b925082820190508082111561095357610952610736565b5b92915050565b61096281610378565b82525050565b600060208201905061097d6000830184610959565b92915050565b610e8a806109926000396000f3fe608060405234801561001057600080fd5b50600436106100b45760003560e01c80635791589711610071578063579158971461016957806370a08231146101855780638da5cb5b146101b557806395d89b41146101d3578063a9059cbb146101f1578063d0ebdbe71461020d576100b4565b806306fdde03146100b9578063095ea7b3146100d757806318160ddd146100f357806323b872dd14610111578063313ce5671461012d578063481c6a751461014b575b600080fd5b6100c1610229565b6040516100ce9190610a52565b60405180910390f35b6100f160048036038101906100ec9190610b0d565b6102b7565b005b6100fb61038a565b6040516101089190610b5c565b60405180910390f35b61012b60048036038101906101269190610b77565b610390565b005b6101356105fe565b6040516101429190610be6565b60405180910390f35b610153610611565b6040516101609190610c10565b60405180910390f35b610183600480360381019061017e9190610c2b565b610637565b005b61019f600480360381019061019a9190610c58565b610644565b6040516101ac9190610b5c565b60405180910390f35b6101bd61065c565b6040516101ca9190610c10565b60405180910390f35b6101db610680565b6040516101e89190610a52565b60405180910390f35b61020b60048036038101906102069190610b0d565b61070e565b005b61022760048036038101906102229190610c58565b6108a5565b005b6002805461023690610cb4565b80601f016020809104026020016040519081016040528092919081815260200182805461026290610cb4565b80156102af5780601f10610284576101008083540402835291602001916102af565b820191906000526020600020905b81548152906001019060200180831161029257829003601f168201915b505050505081565b80600760003373ffffffffffffffffffffffffffffffffffffffff1673ffffffffffffffffffffffffffffffffffffffff16815260200190815260200160002060008473ffffffffffffffffffffffffffffffffffffffff1673ffffffffffffffffffffffffffffffffffffffff168152602001908152602001600020819055508173ffffffffffffffffffffffffffffffffffffffff167f1e4109814b4fb1210f81ef6540a9bf7e5834ff79536859d16d6398f0e417c44f8260405161037e9190610b5c565b60405180910390a25050565b60055481565b600033905081600760008673ffffffffffffffffffffffffffffffffffffffff1673ffffffffffffffffffffffffffffffffffffffff16815260200190815260200160002060008373ffffffffffffffffffffffffffffffffffffffff1673ffffffffffffffffffffffffffffffffffffffff168152602001908152602001600020541015610454576040517f08c379a000000000000000000000000000000000000000000000000000000000815260040161044b90610d31565b60405180910390fd5b81600760008673ffffffffffffffffffffffffffffffffffffffff1673ffffffffffffffffffffffffffffffffffffffff16815260200190815260200160002060008373ffffffffffffffffffffffffffffffffffffffff1673ffffffffffffffffffffffffffffffffffffffff16815260200190815260200160002060008282546104e09190610d80565b9250508190555081600660008673ffffffffffffffffffffffffffffffffffffffff1673ffffffffffffffffffffffffffffffffffffffff16815260200190815260200160002060008282546105369190610d80565b9250508190555081600660008573ffffffffffffffffffffffffffffffffffffffff1673ffffffffffffffffffffffffffffffffffffffff168152602001908152602001600020600082825461058c9190610db4565b925050819055508273ffffffffffffffffffffffffffffffffffffffff168473ffffffffffffffffffffffffffffffffffffffff167fddf252ad1be2c89b69c2b068fc378daa952ba7f163c4a11628f55a4df523b3ef846040516105f09190610b5c565b60405180910390a350505050565b600460009054906101000a900460ff1681565b600160009054906101000a900473ffffffffffffffffffffffffffffffffffffffff1681565b61064181336108e9565b50565b60066020528060005260406000206000915090505481565b60008054906101000a900473ffffffffffffffffffffffffffffffffffffffff1681565b6003805461068d90610cb4565b80601f01602080910402602001604051908101604052809291908181526020018280546106b990610cb4565b80156107065780601f106106db57610100808354040283529160200191610706565b820191906000526020600020905b8154815290600101906020018083116106e957829003601f168201915b505050505081565b80600660003373ffffffffffffffffffffffffffffffffffffffff1673ffffffffffffffffffffffffffffffffffffffff168152602001908152602001600020541015610790576040517f08c379a000000000000000000000000000000000000000000000000000000000815260040161078790610e34565b60405180910390fd5b80600660003373ffffffffffffffffffffffffffffffffffffffff1673ffffffffffffffffffffffffffffffffffffffff16815260200190815260200160002060008282546107df9190610d80565b9250508190555080600660008473ffffffffffffffffffffffffffffffffffffffff1673ffffffffffffffffffffffffffffffffffffffff16815260200190815260200160002060008282546108359190610db4565b925050819055508173ffffffffffffffffffffffffffffffffffffffff163373ffffffffffffffffffffffffffffffffffffffff167fddf252ad1be2c89b69c2b068fc378daa952ba7f163c4a11628f55a4df523b3ef836040516108999190610b5c565b60405180910390a35050565b80600160006101000a81548173ffffffffffffffffffffffffffffffffffffffff021916908373ffffffffffffffffffffffffffffffffffffffff16021790555050565b81600560008282546108fb9190610db4565b9250508190555081600660008373ffffffffffffffffffffffffffffffffffffffff1673ffffffffffffffffffffffffffffffffffffffff16815260200190815260200160002060008282546109519190610db4565b925050819055508073ffffffffffffffffffffffffffffffffffffffff16600073ffffffffffffffffffffffffffffffffffffffff167fddf252ad1be2c89b69c2b068fc378daa952ba7f163c4a11628f55a4df523b3ef846040516109b69190610b5c565b60405180910390a35050565b600081519050919050565b600082825260208201905092915050565b60005b838110156109fc5780820151818401526020810190506109e1565b60008484015250505050565b6000601f19601f8301169050919050565b6000610a24826109c2565b610a2e81856109cd565b9350610a3e8185602086016109de565b610a4781610a08565b840191505092915050565b60006020820190508181036000830152610a6c8184610a19565b905092915050565b600080fd5b600073ffffffffffffffffffffffffffffffffffffffff82169050919050565b6000610aa482610a79565b9050919050565b610ab481610a99565b8114610abf57600080fd5b50565b600081359050610ad181610aab565b92915050565b6000819050919050565b610aea81610ad7565b8114610af557600080fd5b50565b600081359050610b0781610ae1565b92915050565b60008060408385031215610b2457610b23610a74565b5b6000610b3285828601610ac2565b9250506020610b4385828601610af8565b9150509250929050565b610b5681610ad7565b82525050565b6000602082019050610b716000830184610b4d565b92915050565b600080600060608486031215610b9057610b8f610a74565b5b6000610b9e86828701610ac2565b9350506020610baf86828701610ac2565b9250506040610bc086828701610af8565b9150509250925092565b600060ff82169050919050565b610be081610bca565b82525050565b6000602082019050610bfb6000830184610bd7565b92915050565b610c0a81610a99565b82525050565b6000602082019050610c256000830184610c01565b92915050565b600060208284031215610c4157610c40610a74565b5b6000610c4f84828501610af8565b91505092915050565b600060208284031215610c6e57610c6d610a74565b5b6000610c7c84828501610ac2565b91505092915050565b7f4e487b7100000000000000000000000000000000000000000000000000000000600052602260045260246000fd5b60006002820490506001821680610ccc57607f821691505b602082108103610cdf57610cde610c85565b5b50919050565b7f696e73756666696369656e7420616c6c6f77616e636500000000000000000000600082015250565b6000610d1b6016836109cd565b9150610d2682610ce5565b602082019050919050565b60006020820190508181036000830152610d4a81610d0e565b9050919050565b7f4e487b7100000000000000000000000000000000000000000000000000000000600052601160045260246000fd5b6000610d8b82610ad7565b9150610d9683610ad7565b9250828203905081811115610dae57610dad610d51565b5b92915050565b6000610dbf82610ad7565b9150610dca83610ad7565b9250828201905080821115610de257610de1610d51565b5b92915050565b7f696e73756666696369656e742062616c616e6365000000000000000000000000600082015250565b6000610e1e6014836109cd565b9150610e2982610de8565b602082019050919050565b60006020820190508181036000830152610e4d81610e11565b905091905056fea26469706673582212204682129e8ff7d4a5aed7ece6c18fe0631571fab858b6b03556091bbc959bc4a964736f6c634300081c0033",
  "linkReferences": {},
  "deployedLinkReferences": {}
}