{
  "_format": "hh-sol-artifact-1",
  "contractName": "TinyBank",
  "sourceName": "contracts/TinyBank.sol",
  "abi": [
    {
      "inputs": [
        {
          "internalType": "contract IMyToken",
          "name": "_stakingToken",
          "type": "address"
        },
        {
          "internalType": "address",
          "name": "_manager",
          "type": "address"
        }
      ],
      "stateMutability": "nonpayable",
      "type": "constructor"
    },
    {
      "anonymous": false,
      "inputs": [
        {
          "indexed": false,
          "internalType": "address",
          "name": "from",
          "type": "address"
        },
        {
          "indexed": false,
          "internalType": "uint256",
          "name": "amount",
          "type": "uint256"
        }
      ],
      "name": "Staked",
      "type": "event"
    },
    {
      "anonymous": false,
      "inputs": [
        {
          "indexed": false,
          "internalType": "address",
          "name": "to",
          "type": "address"
        },
        {
          "indexed": false,
          "internalType": "uint256",
          "name": "amount",
          "type": "uint256"
        }
      ],
      "name": "Withdrawn",
      "type": "event"
    },
    {
      "inputs": [],
      "name": "getRewardPerBlock",
      "outputs": [
        {
          "internalType": "uint256",
          "name": "",
          "type": "uint256"
        }
      ],
      "stateMutability": "view",
      "type": "function"
    },
    {
      "inputs": [
        {
          "internalType": "address",
          "name": "",
          "type": "address"
        }
      ],
      "name": "lastClaimedBlock",
      "outputs": [
        {
          "internalType": "uint256",
          "name": "",
          "type": "uint256"
        }
      ],
      "stateMutability": "view",
      "type": "function"
    },
    {
      "inputs": [],
      "name": "manager",
      "outputs": [
        {
          "internalType": "address",
          "name": "",
          "type": "address"
        }
      ],
      "stateMutability": "view",
      "type": "function"
    },
    {
      "inputs": [],
      "name": "owner",
      "outputs": [
        {
          "internalType": "address",
          "name": "",
          "type": "address"
        }
      ],
      "stateMutability": "view",
      "type": "function"
    },
    {
      "inputs": [
        {
          "internalType": "uint256",
          "name": "_amount",
          "type": "uint256"
        }
      ],
      "name": "stake",
      "outputs": [],
      "stateMutability": "nonpayable",
      "type": "function"
    },
    {
      "inputs": [
        {
          "internalType": "address",
          "name": "",
          "type": "address"
        }
      ],
      "name": "staked",
      "outputs": [
        {
          "internalType": "uint256",
          "name": "",
          "type": "uint256"
        }
      ],
      "stateMutability": "view",
      "type": "function"
    },
    {
      "inputs": [],
      "name": "stakingToken",
      "outputs": [
        {
          "internalType": "contract IMyToken",
          "name": "",
          "type": "address"
        }
      ],
      "stateMutability": "view",
      "type": "function"
    },
    {
      "inputs": [],
      "name": "totalStaked",
      "outputs": [
        {
          "internalType": "uint256",
          "name": "",
          "type": "uint256"
        }
      ],
      "stateMutability": "view",
      "type": "function"
    },
    {
      "inputs": [
        {
          "internalType": "uint256",
          "name": "_amount",
          "type": "uint256"
        }
      ],
      "name": "withdraw",
      "outputs": [],
      "stateMutability": "nonpayable",
      "type": "function"
    }
  ],
  "bytecode": "0x6080604052670de0b6b3a764000060045534801561001c57600080fd5b50604051611008380380611008833981810160405281019061003e91906101b5565b3381816000806101000a81548173ffffffffffffffffffffffffffffffffffffffff021916908373ffffffffffffffffffffffffffffffffffffffff16021790555080600160006101000a81548173ffffffffffffffffffffffffffffffffffffffff021916908373ffffffffffffffffffffffffffffffffffffffff160217905550505081600260006101000a81548173ffffffffffffffffffffffffffffffffffffffff021916908373ffffffffffffffffffffffffffffffffffffffff16021790555060045460058190555050506101f5565b600080fd5b600073ffffffffffffffffffffffffffffffffffffffff82169050919050565b600061014482610119565b9050919050565b600061015682610139565b9050919050565b6101668161014b565b811461017157600080fd5b50565b6000815190506101838161015d565b92915050565b61019281610139565b811461019d57600080fd5b50565b6000815190506101af81610189565b92915050565b600080604083850312156101cc576101cb610114565b5b60006101da85828601610174565b92505060206101eb858286016101a0565b9150509250929050565b610e04806102046000396000f3fe608060405234801561001057600080fd5b50600436106100935760003560e01c8063817b1cd211610066578063817b1cd21461010e5780638da5cb5b1461012c57806398807d841461014a578063a694fc3a1461017a578063c19e82d51461019657610093565b80632e1a7d4d14610098578063481c6a75146100b457806349df8d33146100d257806372f702f3146100f0575b600080fd5b6100b260048036038101906100ad919061099d565b6101c6565b005b6100bc61055a565b6040516100c99190610a0b565b60405180910390f35b6100da610580565b6040516100e79190610a35565b60405180910390f35b6100f861058a565b6040516101059190610aaf565b60405180910390f35b6101166105b0565b6040516101239190610a35565b60405180910390f35b6101346105b6565b6040516101419190610a0b565b60405180910390f35b610164600480360381019061015f9190610af6565b6105da565b6040516101719190610a35565b60405180910390f35b610194600480360381019061018f919061099d565b6105f2565b005b6101b060048036038101906101ab9190610af6565b61094a565b6040516101bd9190610a35565b60405180910390f35b336000600660008373ffffffffffffffffffffffffffffffffffffffff1673ffffffffffffffffffffffffffffffffffffffff168152602001908152602001600020541115610359576000600360008373ffffffffffffffffffffffffffffffffffffffff1673ffffffffffffffffffffffffffffffffffffffff168152602001908152602001600020544361025c9190610b52565b90506000600754600660008573ffffffffffffffffffffffffffffffffffffffff1673ffffffffffffffffffffffffffffffffffffffff16815260200190815260200160002054600554846102b19190610b86565b6102bb9190610b86565b6102c59190610bf7565b9050600260009054906101000a900473ffffffffffffffffffffffffffffffffffffffff1673ffffffffffffffffffffffffffffffffffffffff166394bf804d82856040518363ffffffff1660e01b8152600401610324929190610c28565b600060405180830381600087803b15801561033e57600080fd5b505af1158015610352573d6000803e3d6000fd5b5050505050505b43600360008373ffffffffffffffffffffffffffffffffffffffff1673ffffffffffffffffffffffffffffffffffffffff1681526020019081526020016000208190555081600660003373ffffffffffffffffffffffffffffffffffffffff1673ffffffffffffffffffffffffffffffffffffffff16815260200190815260200160002054101561041f576040517f08c379a000000000000000000000000000000000000000000000000000000000815260040161041690610cae565b60405180910390fd5b600260009054906101000a900473ffffffffffffffffffffffffffffffffffffffff1673ffffffffffffffffffffffffffffffffffffffff1663a9059cbb33846040518363ffffffff1660e01b815260040161047c929190610cce565b600060405180830381600087803b15801561049657600080fd5b505af11580156104aa573d6000803e3d6000fd5b5050505081600660003373ffffffffffffffffffffffffffffffffffffffff1673ffffffffffffffffffffffffffffffffffffffff16815260200190815260200160002060008282546104fd9190610b52565b9250508190555081600760008282546105169190610b52565b925050819055507f7084f5476618d8e60b11ef0d7d3f06914655adb8793e28ff7f018d4c76d505d5338360405161054e929190610cce565b60405180910390a15050565b600160009054906101000a900473ffffffffffffffffffffffffffffffffffffffff1681565b6000600554905090565b600260009054906101000a900473ffffffffffffffffffffffffffffffffffffffff1681565b60075481565b60008054906101000a900473ffffffffffffffffffffffffffffffffffffffff1681565b60066020528060005260406000206000915090505481565b336000600660008373ffffffffffffffffffffffffffffffffffffffff1673ffffffffffffffffffffffffffffffffffffffff168152602001908152602001600020541115610785576000600360008373ffffffffffffffffffffffffffffffffffffffff1673ffffffffffffffffffffffffffffffffffffffff16815260200190815260200160002054436106889190610b52565b90506000600754600660008573ffffffffffffffffffffffffffffffffffffffff1673ffffffffffffffffffffffffffffffffffffffff16815260200190815260200160002054600554846106dd9190610b86565b6106e79190610b86565b6106f19190610bf7565b9050600260009054906101000a900473ffffffffffffffffffffffffffffffffffffffff1673ffffffffffffffffffffffffffffffffffffffff166394bf804d82856040518363ffffffff1660e01b8152600401610750929190610c28565b600060405180830381600087803b15801561076a57600080fd5b505af115801561077e573d6000803e3d6000fd5b5050505050505b43600360008373ffffffffffffffffffffffffffffffffffffffff1673ffffffffffffffffffffffffffffffffffffffff16815260200190815260200160002081905550600082101561080d576040517f08c379a000000000000000000000000000000000000000000000000000000000815260040161080490610d43565b60405180910390fd5b600260009054906101000a900473ffffffffffffffffffffffffffffffffffffffff1673ffffffffffffffffffffffffffffffffffffffff166323b872dd3330856040518463ffffffff1660e01b815260040161086c93929190610d63565b600060405180830381600087803b15801561088657600080fd5b505af115801561089a573d6000803e3d6000fd5b5050505081600660003373ffffffffffffffffffffffffffffffffffffffff1673ffffffffffffffffffffffffffffffffffffffff16815260200190815260200160002060008282546108ed9190610d9a565b9250508190555081600760008282546109069190610d9a565b925050819055507f9e71bc8eea02a63969f509818f2dafb9254532904319f9dbda79b67bd34a5f3d338360405161093e929190610cce565b60405180910390a15050565b60036020528060005260406000206000915090505481565b600080fd5b6000819050919050565b61097a81610967565b811461098557600080fd5b50565b60008135905061099781610971565b92915050565b6000602082840312156109b3576109b2610962565b5b60006109c184828501610988565b91505092915050565b600073ffffffffffffffffffffffffffffffffffffffff82169050919050565b60006109f5826109ca565b9050919050565b610a05816109ea565b82525050565b6000602082019050610a2060008301846109fc565b92915050565b610a2f81610967565b82525050565b6000602082019050610a4a6000830184610a26565b92915050565b6000819050919050565b6000610a75610a70610a6b846109ca565b610a50565b6109ca565b9050919050565b6000610a8782610a5a565b9050919050565b6000610a9982610a7c565b9050919050565b610aa981610a8e565b82525050565b6000602082019050610ac46000830184610aa0565b92915050565b610ad3816109ea565b8114610ade57600080fd5b50565b600081359050610af081610aca565b92915050565b600060208284031215610b0c57610b0b610962565b5b6000610b1a84828501610ae1565b91505092915050565b7f4e487b7100000000000000000000000000000000000000000000000000000000600052601160045260246000fd5b6000610b5d82610967565b9150610b6883610967565b9250828203905081811115610b8057610b7f610b23565b5b92915050565b6000610b9182610967565b9150610b9c83610967565b9250828202610baa81610967565b91508282048414831517610bc157610bc0610b23565b5b5092915050565b7f4e487b7100000000000000000000000000000000000000000000000000000000600052601260045260246000fd5b6000610c0282610967565b9150610c0d83610967565b925082610c1d57610c1c610bc8565b5b828204905092915050565b6000604082019050610c3d6000830185610a26565b610c4a60208301846109fc565b9392505050565b600082825260208201905092915050565b7f696e73756666696369656e74207374616b656420746f6b656e00000000000000600082015250565b6000610c98601983610c51565b9150610ca382610c62565b602082019050919050565b60006020820190508181036000830152610cc781610c8b565b9050919050565b6000604082019050610ce360008301856109fc565b610cf06020830184610a26565b9392505050565b7f63616e6e6f74207374616b65203020616d6f756e740000000000000000000000600082015250565b6000610d2d601583610c51565b9150610d3882610cf7565b602082019050919050565b60006020820190508181036000830152610d5c81610d20565b9050919050565b6000606082019050610d7860008301866109fc565b610d8560208301856109fc565b610d926040830184610a26565b949350505050565b6000610da582610967565b9150610db083610967565b9250828201905080821115610dc857610dc7610b23565b5b9291505056fea264697066735822122070df7e4a714d7514dc242756ffa03590d03ed7be339ca7ad36947972955a50e664736f6c634300081c0033",
  "linkReferences": {},
  "deployedLinkReferences": {}
}